{
  "contractName": "Arb",
  "abi": [
    {
      "inputs": [],
      "stateMutability": "payable",
      "type": "constructor"
    },
    {
      "anonymous": false,
      "inputs": [
        {
          "indexed": false,
          "internalType": "address",
          "name": "_strategy",
          "type": "address"
        }
      ],
      "name": "NewFlashLoanStrategy",
      "type": "event"
    },
    {
      "anonymous": false,
      "inputs": [
        {
          "indexed": true,
          "internalType": "address",
          "name": "previousOwner",
          "type": "address"
        },
        {
          "indexed": true,
          "internalType": "address",
          "name": "newOwner",
          "type": "address"
        }
      ],
      "name": "OwnershipTransferred",
      "type": "event"
    },
    {
      "inputs": [],
      "name": "DAI",
      "outputs": [
        {
          "internalType": "address",
          "name": "",
          "type": "address"
        }
      ],
      "stateMutability": "view",
      "type": "function"
    },
    {
      "inputs": [],
      "name": "SAI",
      "outputs": [
        {
          "internalType": "address",
          "name": "",
          "type": "address"
        }
      ],
      "stateMutability": "view",
      "type": "function"
    },
    {
      "inputs": [],
      "name": "USDC",
      "outputs": [
        {
          "internalType": "address",
          "name": "",
          "type": "address"
        }
      ],
      "stateMutability": "view",
      "type": "function"
    },
    {
      "inputs": [],
      "name": "WETH",
      "outputs": [
        {
          "internalType": "address",
          "name": "",
          "type": "address"
        }
      ],
      "stateMutability": "view",
      "type": "function"
    },
    {
      "inputs": [
        {
          "internalType": "address",
          "name": "",
          "type": "address"
        }
      ],
      "name": "currencies",
      "outputs": [
        {
          "internalType": "uint256",
          "name": "",
          "type": "uint256"
        }
      ],
      "stateMutability": "view",
      "type": "function"
    },
    {
      "inputs": [],
      "name": "loan",
      "outputs": [
        {
          "internalType": "uint256",
          "name": "",
          "type": "uint256"
        }
      ],
      "stateMutability": "view",
      "type": "function"
    },
    {
      "inputs": [],
      "name": "owner",
      "outputs": [
        {
          "internalType": "address",
          "name": "",
          "type": "address"
        }
      ],
      "stateMutability": "view",
      "type": "function"
    },
    {
      "inputs": [],
      "name": "renounceOwnership",
      "outputs": [],
      "stateMutability": "nonpayable",
      "type": "function"
    },
    {
      "inputs": [
        {
          "internalType": "address",
          "name": "token",
          "type": "address"
        }
      ],
      "name": "tokenToMarketId",
      "outputs": [
        {
          "internalType": "uint256",
          "name": "",
          "type": "uint256"
        }
      ],
      "stateMutability": "view",
      "type": "function"
    },
    {
      "inputs": [
        {
          "internalType": "address",
          "name": "newOwner",
          "type": "address"
        }
      ],
      "name": "transferOwnership",
      "outputs": [],
      "stateMutability": "nonpayable",
      "type": "function"
    },
    {
      "inputs": [
        {
          "internalType": "address",
          "name": "_strategy",
          "type": "address"
        }
      ],
      "name": "addFlashLoanStrategy",
      "outputs": [],
      "stateMutability": "nonpayable",
      "type": "function"
    },
    {
      "inputs": [
        {
          "internalType": "address",
          "name": "_flashToken",
          "type": "address"
        },
        {
          "internalType": "uint256",
          "name": "_flashAmount",
          "type": "uint256"
        },
        {
          "internalType": "address",
          "name": "_strategy",
          "type": "address"
        },
        {
          "internalType": "bytes",
          "name": "strategyData",
          "type": "bytes"
        }
      ],
      "name": "initFlashloan",
      "outputs": [],
      "stateMutability": "nonpayable",
      "type": "function"
    },
    {
      "inputs": [
        {
          "internalType": "address",
          "name": "",
          "type": "address"
        },
        {
          "components": [
            {
              "internalType": "address",
              "name": "owner",
              "type": "address"
            },
            {
              "internalType": "uint256",
              "name": "number",
              "type": "uint256"
            }
          ],
          "internalType": "struct Structs.Info",
          "name": "",
          "type": "tuple"
        },
        {
          "internalType": "bytes",
          "name": "flashLoanData",
          "type": "bytes"
        }
      ],
      "name": "callFunction",
      "outputs": [],
      "stateMutability": "nonpayable",
      "type": "function"
    }
  ],
  "bytecode": "0x6080604052731e0447b19bb6ecfdae1e4ae1694b0c3659614e4e6000806101000a81548173ffffffffffffffffffffffffffffffffffffffff021916908373ffffffffffffffffffffffffffffffffffffffff16021790555073c02aaa39b223fe8d0a0e5c4f27ead9083c756cc2600160006101000a81548173ffffffffffffffffffffffffffffffffffffffff021916908373ffffffffffffffffffffffffffffffffffffffff1602179055507389d24a6b4ccb1b6faa2625fe562bdd9a23260359600260006101000a81548173ffffffffffffffffffffffffffffffffffffffff021916908373ffffffffffffffffffffffffffffffffffffffff16021790555073a0b86991c6218b36c1d19d4a2e9eb0ce3606eb48600360006101000a81548173ffffffffffffffffffffffffffffffffffffffff021916908373ffffffffffffffffffffffffffffffffffffffff160217905550736b175474e89094c44da98b954eedeac495271d0f600460006101000a81548173ffffffffffffffffffffffffffffffffffffffff021916908373ffffffffffffffffffffffffffffffffffffffff160217905550600160056000600160009054906101000a900473ffffffffffffffffffffffffffffffffffffffff1673ffffffffffffffffffffffffffffffffffffffff1673ffffffffffffffffffffffffffffffffffffffff16815260200190815260200160002081905550600260056000600260009054906101000a900473ffffffffffffffffffffffffffffffffffffffff1673ffffffffffffffffffffffffffffffffffffffff1673ffffffffffffffffffffffffffffffffffffffff16815260200190815260200160002081905550600360056000600360009054906101000a900473ffffffffffffffffffffffffffffffffffffffff1673ffffffffffffffffffffffffffffffffffffffff1673ffffffffffffffffffffffffffffffffffffffff16815260200190815260200160002081905550600460056000600460009054906101000a900473ffffffffffffffffffffffffffffffffffffffff1673ffffffffffffffffffffffffffffffffffffffff1673ffffffffffffffffffffffffffffffffffffffff16815260200190815260200160002081905550600061035861040760201b60201c565b905080600660006101000a81548173ffffffffffffffffffffffffffffffffffffffff021916908373ffffffffffffffffffffffffffffffffffffffff1602179055508073ffffffffffffffffffffffffffffffffffffffff16600073ffffffffffffffffffffffffffffffffffffffff167f8be0079c531659141344cd1fd0a4f28419497f9722a3daafe3b4186f6b6457e060405160405180910390a35061012c420160088190555061040f565b600033905090565b6120a68061041e6000396000f3fe608060405234801561001057600080fd5b50600436106100cf5760003560e01c80638da5cb5b1161008c578063d285b7b411610066578063d285b7b4146101ee578063d947aa831461020c578063e0bab4c414610228578063f2fde38b14610246576100cf565b80638da5cb5b14610182578063ad5c4648146101a0578063b8268788146101be576100cf565b80634b3fb7f8146100d45780636036cba3146100f2578063715018a614610122578063781d38711461012c57806389a30271146101485780638b41871314610166575b600080fd5b6100dc610262565b6040516100e99190611b13565b60405180910390f35b61010c600480360381019061010791906113f6565b610288565b6040516101199190611cea565b60405180910390f35b61012a6102a0565b005b610146600480360381019061014191906113f6565b6103f8565b005b6101506105ae565b60405161015d9190611b13565b60405180910390f35b610180600480360381019061017b91906114ae565b6105d4565b005b61018a61088e565b6040516101979190611b13565b60405180910390f35b6101a86108b8565b6040516101b59190611b13565b60405180910390f35b6101d860048036038101906101d391906113f6565b6108de565b6040516101e59190611cea565b60405180910390f35b6101f6610973565b6040516102039190611cea565b60405180910390f35b6102266004803603810190610221919061151a565b610979565b005b610230610b68565b60405161023d9190611b13565b60405180910390f35b610260600480360381019061025b91906113f6565b610b8e565b005b600260009054906101000a900473ffffffffffffffffffffffffffffffffffffffff1681565b60056020528060005260406000206000915090505481565b6102a8610d55565b73ffffffffffffffffffffffffffffffffffffffff16600660009054906101000a900473ffffffffffffffffffffffffffffffffffffffff1673ffffffffffffffffffffffffffffffffffffffff1614610337576040517f08c379a000000000000000000000000000000000000000000000000000000000815260040161032e90611c6a565b60405180910390fd5b600073ffffffffffffffffffffffffffffffffffffffff16600660009054906101000a900473ffffffffffffffffffffffffffffffffffffffff1673ffffffffffffffffffffffffffffffffffffffff167f8be0079c531659141344cd1fd0a4f28419497f9722a3daafe3b4186f6b6457e060405160405180910390a36000600660006101000a81548173ffffffffffffffffffffffffffffffffffffffff021916908373ffffffffffffffffffffffffffffffffffffffff160217905550565b610400610d55565b73ffffffffffffffffffffffffffffffffffffffff16600660009054906101000a900473ffffffffffffffffffffffffffffffffffffffff1673ffffffffffffffffffffffffffffffffffffffff161461048f576040517f08c379a000000000000000000000000000000000000000000000000000000000815260040161048690611c6a565b60405180910390fd5b600960008273ffffffffffffffffffffffffffffffffffffffff1673ffffffffffffffffffffffffffffffffffffffff16815260200190815260200160002060009054906101000a900460ff161561051c576040517f08c379a000000000000000000000000000000000000000000000000000000000815260040161051390611c4a565b60405180910390fd5b6001600960008373ffffffffffffffffffffffffffffffffffffffff1673ffffffffffffffffffffffffffffffffffffffff16815260200190815260200160002060006101000a81548160ff0219169083151502179055507f6955b42bc17f08c2424cac6aba2014552d684b6986c93e0b12bab97a9b841ef3816040516105a39190611b13565b60405180910390a150565b600360009054906101000a900473ffffffffffffffffffffffffffffffffffffffff1681565b6000809054906101000a900473ffffffffffffffffffffffffffffffffffffffff1673ffffffffffffffffffffffffffffffffffffffff163373ffffffffffffffffffffffffffffffffffffffff1614610663576040517f08c379a000000000000000000000000000000000000000000000000000000000815260040161065a90611c2a565b60405180910390fd5b6000806000806060868681019061067a919061141f565b9450945094509450945060008573ffffffffffffffffffffffffffffffffffffffff166370a08231306040518263ffffffff1660e01b81526004016106bf9190611b13565b60206040518083038186803b1580156106d757600080fd5b505afa1580156106eb573d6000803e3d6000fd5b505050506040513d601f19601f8201168201806040525081019061070f91906115be565b90508484820314610755576040517f08c379a000000000000000000000000000000000000000000000000000000000815260040161074c90611c8a565b60405180910390fd5b806007819055508273ffffffffffffffffffffffffffffffffffffffff166309c5eabe836040518263ffffffff1660e01b81526004016107959190611be8565b600060405180830381600087803b1580156107af57600080fd5b505af19250505080156107c0575060015b610816576107cc611f37565b806107d757506107dd565b50610811565b3d8060008114610809576040519150601f19603f3d011682016040523d82523d6000602084013e61080e565b606091505b50505b610882565b8273ffffffffffffffffffffffffffffffffffffffff1663756af45f876040518263ffffffff1660e01b815260040161084f9190611b13565b600060405180830381600087803b15801561086957600080fd5b505af115801561087d573d6000803e3d6000fd5b505050505b50505050505050505050565b6000600660009054906101000a900473ffffffffffffffffffffffffffffffffffffffff16905090565b600160009054906101000a900473ffffffffffffffffffffffffffffffffffffffff1681565b600080600560008473ffffffffffffffffffffffffffffffffffffffff1673ffffffffffffffffffffffffffffffffffffffff1681526020019081526020016000205490506000811415610967576040517f08c379a000000000000000000000000000000000000000000000000000000000815260040161095e90611caa565b60405180910390fd5b60018103915050919050565b60075481565b610981610d55565b73ffffffffffffffffffffffffffffffffffffffff16600660009054906101000a900473ffffffffffffffffffffffffffffffffffffffff1673ffffffffffffffffffffffffffffffffffffffff1614610a10576040517f08c379a0000000000000000000000000000000000000000000000000000000008152600401610a0790611c6a565b60405180910390fd5b60008473ffffffffffffffffffffffffffffffffffffffff166370a08231306040518263ffffffff1660e01b8152600401610a4b9190611b13565b60206040518083038186803b158015610a6357600080fd5b505afa158015610a77573d6000803e3d6000fd5b505050506040513d601f19601f82011682018060405250810190610a9b91906115be565b9050600960008473ffffffffffffffffffffffffffffffffffffffff1673ffffffffffffffffffffffffffffffffffffffff16815260200190815260200160002060009054906101000a900460ff16610b29576040517f08c379a0000000000000000000000000000000000000000000000000000000008152600401610b2090611cca565b60405180910390fd5b60608585838686604051602001610b44959493929190611b57565b6040516020818303038152906040529050610b60868683610d5d565b505050505050565b600460009054906101000a900473ffffffffffffffffffffffffffffffffffffffff1681565b610b96610d55565b73ffffffffffffffffffffffffffffffffffffffff16600660009054906101000a900473ffffffffffffffffffffffffffffffffffffffff1673ffffffffffffffffffffffffffffffffffffffff1614610c25576040517f08c379a0000000000000000000000000000000000000000000000000000000008152600401610c1c90611c6a565b60405180910390fd5b600073ffffffffffffffffffffffffffffffffffffffff168173ffffffffffffffffffffffffffffffffffffffff161415610c95576040517f08c379a0000000000000000000000000000000000000000000000000000000008152600401610c8c90611c0a565b60405180910390fd5b8073ffffffffffffffffffffffffffffffffffffffff16600660009054906101000a900473ffffffffffffffffffffffffffffffffffffffff1673ffffffffffffffffffffffffffffffffffffffff167f8be0079c531659141344cd1fd0a4f28419497f9722a3daafe3b4186f6b6457e060405160405180910390a380600660006101000a81548173ffffffffffffffffffffffffffffffffffffffff021916908373ffffffffffffffffffffffffffffffffffffffff16021790555050565b600033905090565b8273ffffffffffffffffffffffffffffffffffffffff1663095ea7b36000809054906101000a900473ffffffffffffffffffffffffffffffffffffffff16600185016040518363ffffffff1660e01b8152600401610dbc929190611b2e565b602060405180830381600087803b158015610dd657600080fd5b505af1158015610dea573d6000803e3d6000fd5b505050506040513d601f19601f82011682018060405250810190610e0e9190611595565b506060600167ffffffffffffffff81118015610e2957600080fd5b50604051908082528060200260200182016040528015610e6357816020015b610e506111fa565b815260200190600190039081610e485790505b5090506060600367ffffffffffffffff81118015610e8057600080fd5b50604051908082528060200260200182016040528015610eba57816020015b610ea761122a565b815260200190600190039081610e9f5790505b50905060405180604001604052803073ffffffffffffffffffffffffffffffffffffffff168152602001600081525082600081518110610ef657fe5b6020026020010181905250610f09611296565b6040518060800160405280600015158152602001600080811115610f2957fe5b8152602001600080811115610f3a57fe5b8152602001868152509050610f4d61122a565b600181600001906008811115610f5f57fe5b90816008811115610f6c57fe5b815250506000816020018181525050818160400181905250610f8d876108de565b816060018181525050308160a0019073ffffffffffffffffffffffffffffffffffffffff16908173ffffffffffffffffffffffffffffffffffffffff16815250508083600081518110610fdc57fe5b6020026020010181905250610fef61122a565b60088160000190600881111561100157fe5b9081600881111561100e57fe5b815250506000816020018181525050308160a0019073ffffffffffffffffffffffffffffffffffffffff16908173ffffffffffffffffffffffffffffffffffffffff1681525050858160e00181905250808460018151811061106c57fe5b602002602001018190525061107f61122a565b611087611296565b60405180608001604052806001151581526020016000808111156110a757fe5b81526020016000808111156110b857fe5b815260200160018b0181525090506000826000019060088111156110d857fe5b908160088111156110e557fe5b8152505060008260200181815250508082604001819052506111068a6108de565b826060018181525050308260a0019073ffffffffffffffffffffffffffffffffffffffff16908173ffffffffffffffffffffffffffffffffffffffff1681525050818660028151811061115557fe5b60200260200101819052506000809054906101000a900473ffffffffffffffffffffffffffffffffffffffff1673ffffffffffffffffffffffffffffffffffffffff1663a67a6a4588886040518363ffffffff1660e01b81526004016111bc929190611bb1565b600060405180830381600087803b1580156111d657600080fd5b505af11580156111ea573d6000803e3d6000fd5b5050505050505050505050505050565b6040518060400160405280600073ffffffffffffffffffffffffffffffffffffffff168152602001600081525090565b6040518061010001604052806000600881111561124357fe5b815260200160008152602001611257611296565b81526020016000815260200160008152602001600073ffffffffffffffffffffffffffffffffffffffff16815260200160008152602001606081525090565b60405180608001604052806000151581526020016000808111156112b657fe5b81526020016000808111156112c757fe5b8152602001600081525090565b6000813590506112e381612014565b92915050565b6000813590506112f88161202b565b92915050565b60008151905061130d81612042565b92915050565b60008083601f84011261132557600080fd5b8235905067ffffffffffffffff81111561133e57600080fd5b60208301915083600182028301111561135657600080fd5b9250929050565b600082601f83011261136e57600080fd5b813561138161137c82611d32565b611d05565b9150808252602083016020830185838301111561139d57600080fd5b6113a8838284611ed7565b50505092915050565b6000604082840312156113c357600080fd5b81905092915050565b6000813590506113db81612059565b92915050565b6000815190506113f081612059565b92915050565b60006020828403121561140857600080fd5b6000611416848285016112d4565b91505092915050565b600080600080600060a0868803121561143757600080fd5b6000611445888289016112e9565b9550506020611456888289016113cc565b9450506040611467888289016113cc565b9350506060611478888289016112e9565b925050608086013567ffffffffffffffff81111561149557600080fd5b6114a18882890161135d565b9150509295509295909350565b600080600080608085870312156114c457600080fd5b60006114d2878288016112d4565b94505060206114e3878288016113b1565b935050606085013567ffffffffffffffff81111561150057600080fd5b61150c87828801611313565b925092505092959194509250565b6000806000806080858703121561153057600080fd5b600061153e878288016112d4565b945050602061154f878288016113cc565b9350506040611560878288016112d4565b925050606085013567ffffffffffffffff81111561157d57600080fd5b6115898782880161135d565b91505092959194509250565b6000602082840312156115a757600080fd5b60006115b5848285016112fe565b91505092915050565b6000602082840312156115d057600080fd5b60006115de848285016113e1565b91505092915050565b60006115f383836119be565b905092915050565b60006116078383611ac6565b60408301905092915050565b61161c81611e0e565b82525050565b61162b81611e0e565b82525050565b600061163c82611d7e565b6116468185611db9565b93508360208202850161165885611d5e565b8060005b85811015611694578484038952815161167585826115e7565b945061168083611d9f565b925060208a0199505060018101905061165c565b50829750879550505050505092915050565b60006116b182611d89565b6116bb8185611dca565b93506116c683611d6e565b8060005b838110156116f75781516116de88826115fb565b97506116e983611dac565b9250506001810190506116ca565b5085935050505092915050565b61170d81611e32565b82525050565b600061171e82611d94565b6117288185611ddb565b9350611738818560208601611ee6565b61174181611f19565b840191505092915050565b600061175782611d94565b6117618185611dec565b9350611771818560208601611ee6565b61177a81611f19565b840191505092915050565b61178e81611ea1565b82525050565b61179d81611eb3565b82525050565b6117ac81611ec5565b82525050565b60006117bf602683611dfd565b91507f4f776e61626c653a206e6577206f776e657220697320746865207a65726f206160008301527f64647265737300000000000000000000000000000000000000000000000000006020830152604082019050919050565b6000611825602c83611dfd565b91507f466c6173684c6f616e3a20636f756c642062652063616c6c656420627920447960008301527f447820706f6f6c206f6e6c7900000000000000000000000000000000000000006020830152604082019050919050565b600061188b601783611dfd565b91507f537472617465677920616c7265616479206578697374730000000000000000006000830152602082019050919050565b60006118cb602083611dfd565b91507f4f776e61626c653a2063616c6c6572206973206e6f7420746865206f776e65726000830152602082019050919050565b600061190b601d83611dfd565b91507f636f6e747261637420646964206e6f742067657420746865206c6f616e0000006000830152602082019050919050565b600061194b601c83611dfd565b91507f466c6173684c6f616e3a20556e737570706f7274656420746f6b656e000000006000830152602082019050919050565b600061198b601a83611dfd565b91507f496e76616c696420666c6173686c6f616e2073747261746567790000000000006000830152602082019050919050565b6000610160830160008301516119d76000860182611785565b5060208301516119ea6020860182611af5565b5060408301516119fd6040860182611a71565b506060830151611a1060c0860182611af5565b506080830151611a2360e0860182611af5565b5060a0830151611a37610100860182611613565b5060c0830151611a4b610120860182611af5565b5060e0830151848203610140860152611a648282611713565b9150508091505092915050565b608082016000820151611a876000850182611704565b506020820151611a9a6020850182611794565b506040820151611aad60408501826117a3565b506060820151611ac06060850182611af5565b50505050565b604082016000820151611adc6000850182611613565b506020820151611aef6020850182611af5565b50505050565b611afe81611e97565b82525050565b611b0d81611e97565b82525050565b6000602082019050611b286000830184611622565b92915050565b6000604082019050611b436000830185611622565b611b506020830184611b04565b9392505050565b600060a082019050611b6c6000830188611622565b611b796020830187611b04565b611b866040830186611b04565b611b936060830185611622565b8181036080830152611ba5818461174c565b90509695505050505050565b60006040820190508181036000830152611bcb81856116a6565b90508181036020830152611bdf8184611631565b90509392505050565b60006020820190508181036000830152611c02818461174c565b905092915050565b60006020820190508181036000830152611c23816117b2565b9050919050565b60006020820190508181036000830152611c4381611818565b9050919050565b60006020820190508181036000830152611c638161187e565b9050919050565b60006020820190508181036000830152611c83816118be565b9050919050565b60006020820190508181036000830152611ca3816118fe565b9050919050565b60006020820190508181036000830152611cc38161193e565b9050919050565b60006020820190508181036000830152611ce38161197e565b9050919050565b6000602082019050611cff6000830184611b04565b92915050565b6000604051905081810181811067ffffffffffffffff82111715611d2857600080fd5b8060405250919050565b600067ffffffffffffffff821115611d4957600080fd5b601f19601f8301169050602081019050919050565b6000819050602082019050919050565b6000819050602082019050919050565b600081519050919050565b600081519050919050565b600081519050919050565b6000602082019050919050565b6000602082019050919050565b600082825260208201905092915050565b600082825260208201905092915050565b600082825260208201905092915050565b600082825260208201905092915050565b600082825260208201905092915050565b6000611e1982611e77565b9050919050565b6000611e2b82611e77565b9050919050565b60008115159050919050565b6000819050611e4c82611fed565b919050565b6000819050611e5f82611ffa565b919050565b6000819050611e7282612007565b919050565b600073ffffffffffffffffffffffffffffffffffffffff82169050919050565b6000819050919050565b6000611eac82611e3e565b9050919050565b6000611ebe82611e51565b9050919050565b6000611ed082611e64565b9050919050565b82818337600083830152505050565b60005b83811015611f04578082015181840152602081019050611ee9565b83811115611f13576000848401525b50505050565b6000601f19601f8301169050919050565b60008160e01c9050919050565b600060443d1015611f4757611fea565b60046000803e611f58600051611f2a565b6308c379a08114611f695750611fea565b60405160043d036004823e80513d602482011167ffffffffffffffff82111715611f9557505050611fea565b808201805167ffffffffffffffff811115611fb4575050505050611fea565b8060208301013d8501811115611fcf57505050505050611fea565b611fd882611f19565b60208401016040528296505050505050505b90565b60098110611ff757fe5b50565b6001811061200457fe5b50565b6001811061201157fe5b50565b61201d81611e0e565b811461202857600080fd5b50565b61203481611e20565b811461203f57600080fd5b50565b61204b81611e32565b811461205657600080fd5b50565b61206281611e97565b811461206d57600080fd5b5056fea2646970667358221220fc55eaa38658f97f62f6bb5b0d52975f39ae79ebdc8b1cceae57406e1ac68bad64736f6c634300060a0033",
  "immutableReferences": {},
  "source": "pragma solidity 0.6.10;\npragma experimental ABIEncoderV2;\n\nimport \"./dydx/DyDxFlashLoan.sol\";\n\nimport \"./arb/strategies/FlashLoanStrategy.sol\";\nimport \"@openzeppelin/contracts/math/SafeMath.sol\";\nimport \"@openzeppelin/contracts/access/Ownable.sol\";\n\ncontract Arb is DyDxFlashLoan, Ownable {\n\n    using SafeMath for uint256;\n    uint256 public loan;\n    uint deadline;\n\n    mapping (address => bool) flashLoanStrategies;\n\n    event NewFlashLoanStrategy(address _strategy);\n    \n    /**\n        Initialize deployment parameters\n     */\n    constructor ()\n    public \n    payable {\n      // setting deadline to avoid scenario where miners hang onto it and execute at a more profitable time\n      deadline = block.timestamp + 300; // 5 minutes\n    }\n\n    function addFlashLoanStrategy(address _strategy)\n    public\n    onlyOwner {\n      require(!flashLoanStrategies[_strategy], \"Strategy already exists\");\n\n      flashLoanStrategies[_strategy] = true;\n\n      emit NewFlashLoanStrategy(address(_strategy));\n    }\n\n    function initFlashloan(\n      address _flashToken,\n      uint256 _flashAmount,\n      address _strategy,\n      bytes memory strategyData\n    ) \n    external\n    onlyOwner {\n        uint256 balanceBefore = IERC20(_flashToken).balanceOf(address(this));\n\n        require(flashLoanStrategies[_strategy], \"Invalid flashloan strategy\");\n\n        bytes memory flashLoanData = abi.encode(_flashToken, _flashAmount, balanceBefore, _strategy, strategyData); \n\n        flashloan(_flashToken, _flashAmount, flashLoanData); // execution goes to `callFunction`\n        // and at this point we have succefully paid the debt\n    }\n\n    function callFunction(\n        address, /* sender */\n        Info calldata, /* accountInfo */\n        bytes calldata flashLoanData\n    ) external onlyPool {\n        (\n          address flashToken, \n          uint256 flashAmount,\n          uint256 balanceBefore, \n          address strategy, \n          bytes memory strategyData\n        ) = abi\n            .decode(flashLoanData, (address, uint256, uint256, address, bytes));\n        uint256 balanceAfter = IERC20(flashToken).balanceOf(address(this));\n        require(\n            balanceAfter - balanceBefore == flashAmount,\n            \"contract did not get the loan\"\n        );\n        loan = balanceAfter;\n\n        // execute arbitrage strategy\n        try FlashLoanStrategy(strategy).execute(strategyData) {\n          FlashLoanStrategy(strategy).withdrawBalance(flashToken);\n        } catch Error(string memory) {\n            // Reverted with a reason string provided\n        } catch (bytes memory) {\n            // failing assertion, division by zero.. blah blah\n        }\n        // the debt will be automatically withdrawn from this contract at the end of execution\n    }\n}",
  "sourcePath": "/Users/dev/Projects/xstable/contracts/Arb.sol",
  "compiler": {
    "name": "solc",
    "version": "0.6.10+commit.00c0fcaf.Emscripten.clang"
  },
  "schemaVersion": "3.2.5",
  "updatedAt": "2020-10-03T20:37:39.178Z",
  "devdoc": {
    "methods": {
      "owner()": {
        "details": "Returns the address of the current owner."
      },
      "renounceOwnership()": {
        "details": "Leaves the contract without owner. It will not be possible to call `onlyOwner` functions anymore. Can only be called by the current owner. NOTE: Renouncing ownership will leave the contract without an owner, thereby removing any functionality that is only available to the owner."
      },
      "transferOwnership(address)": {
        "details": "Transfers ownership of the contract to a new account (`newOwner`). Can only be called by the current owner."
      }
    }
  },
  "userdoc": {
    "methods": {
      "constructor": "Initialize deployment parameters"
    }
  }
}