{
  "contractName": "XStable",
  "abi": [
    {
      "inputs": [],
      "stateMutability": "nonpayable",
      "type": "constructor"
    },
    {
      "anonymous": false,
      "inputs": [
        {
          "indexed": false,
          "internalType": "address",
          "name": "sender",
          "type": "address"
        },
        {
          "indexed": false,
          "internalType": "uint256",
          "name": "amount",
          "type": "uint256"
        },
        {
          "indexed": false,
          "internalType": "uint256",
          "name": "mintedXSUsd",
          "type": "uint256"
        }
      ],
      "name": "Deposit",
      "type": "event"
    },
    {
      "anonymous": false,
      "inputs": [
        {
          "indexed": false,
          "internalType": "address",
          "name": "caller",
          "type": "address"
        },
        {
          "indexed": false,
          "internalType": "uint256",
          "name": "usdcAmount",
          "type": "uint256"
        }
      ],
      "name": "MintPoolRewards",
      "type": "event"
    },
    {
      "anonymous": false,
      "inputs": [
        {
          "indexed": true,
          "internalType": "address",
          "name": "previousOwner",
          "type": "address"
        },
        {
          "indexed": true,
          "internalType": "address",
          "name": "newOwner",
          "type": "address"
        }
      ],
      "name": "OwnershipTransferred",
      "type": "event"
    },
    {
      "anonymous": false,
      "inputs": [
        {
          "indexed": false,
          "internalType": "address",
          "name": "sender",
          "type": "address"
        },
        {
          "indexed": false,
          "internalType": "uint256",
          "name": "amount",
          "type": "uint256"
        },
        {
          "indexed": false,
          "internalType": "uint256",
          "name": "burnedXSUsd",
          "type": "uint256"
        }
      ],
      "name": "Withdraw",
      "type": "event"
    },
    {
      "inputs": [],
      "name": "curveToken",
      "outputs": [
        {
          "internalType": "contract IERC20",
          "name": "",
          "type": "address"
        }
      ],
      "stateMutability": "view",
      "type": "function"
    },
    {
      "inputs": [],
      "name": "owner",
      "outputs": [
        {
          "internalType": "address",
          "name": "",
          "type": "address"
        }
      ],
      "stateMutability": "view",
      "type": "function"
    },
    {
      "inputs": [],
      "name": "renounceOwnership",
      "outputs": [],
      "stateMutability": "nonpayable",
      "type": "function"
    },
    {
      "inputs": [
        {
          "internalType": "address",
          "name": "",
          "type": "address"
        }
      ],
      "name": "swapGauges",
      "outputs": [
        {
          "internalType": "contract ILiquidityGauge",
          "name": "",
          "type": "address"
        }
      ],
      "stateMutability": "view",
      "type": "function"
    },
    {
      "inputs": [],
      "name": "swerveToken",
      "outputs": [
        {
          "internalType": "contract IERC20",
          "name": "",
          "type": "address"
        }
      ],
      "stateMutability": "view",
      "type": "function"
    },
    {
      "inputs": [
        {
          "internalType": "address",
          "name": "newOwner",
          "type": "address"
        }
      ],
      "name": "transferOwnership",
      "outputs": [],
      "stateMutability": "nonpayable",
      "type": "function"
    },
    {
      "inputs": [],
      "name": "usdcToken",
      "outputs": [
        {
          "internalType": "contract IERC20",
          "name": "",
          "type": "address"
        }
      ],
      "stateMutability": "view",
      "type": "function"
    },
    {
      "inputs": [],
      "name": "xsUsd",
      "outputs": [
        {
          "internalType": "contract XSUSD",
          "name": "",
          "type": "address"
        }
      ],
      "stateMutability": "view",
      "type": "function"
    },
    {
      "inputs": [
        {
          "internalType": "address",
          "name": "_swap",
          "type": "address"
        },
        {
          "internalType": "uint256",
          "name": "_amount",
          "type": "uint256"
        }
      ],
      "name": "deposit",
      "outputs": [
        {
          "internalType": "uint256",
          "name": "mintableXSUSDInWei",
          "type": "uint256"
        }
      ],
      "stateMutability": "nonpayable",
      "type": "function"
    },
    {
      "inputs": [
        {
          "internalType": "address",
          "name": "_swap",
          "type": "address"
        },
        {
          "internalType": "uint256",
          "name": "_amount",
          "type": "uint256"
        }
      ],
      "name": "withdraw",
      "outputs": [
        {
          "internalType": "uint256",
          "name": "withdrawableLpTokens",
          "type": "uint256"
        }
      ],
      "stateMutability": "nonpayable",
      "type": "function"
    },
    {
      "inputs": [],
      "name": "mintPoolRewards",
      "outputs": [
        {
          "internalType": "bool",
          "name": "",
          "type": "bool"
        }
      ],
      "stateMutability": "nonpayable",
      "type": "function"
    },
    {
      "inputs": [],
      "name": "claimRewards",
      "outputs": [
        {
          "internalType": "uint256",
          "name": "rewardAmount",
          "type": "uint256"
        }
      ],
      "stateMutability": "nonpayable",
      "type": "function"
    },
    {
      "inputs": [],
      "name": "getVirtualPrice",
      "outputs": [
        {
          "internalType": "uint256",
          "name": "virtualPrice",
          "type": "uint256"
        }
      ],
      "stateMutability": "nonpayable",
      "type": "function"
    }
  ],
  "bytecode": "0x60806040526040518060a0016040528073a2b47e3d5c44877cca798226b7b8118f9bfb7a5673ffffffffffffffffffffffffffffffffffffffff1673ffffffffffffffffffffffffffffffffffffffff1681526020017345f783cce6b7ff23b2ab2d70e416cdb7d6055f5173ffffffffffffffffffffffffffffffffffffffff1673ffffffffffffffffffffffffffffffffffffffff1681526020017379a8c46dea5ada233abaffd40f3a0a2b1e5a4f2773ffffffffffffffffffffffffffffffffffffffff1673ffffffffffffffffffffffffffffffffffffffff16815260200173a5407eae9ba41422680e2e00537571bcc53efbfd73ffffffffffffffffffffffffffffffffffffffff1673ffffffffffffffffffffffffffffffffffffffff1681526020017306364f10b501e868329afbc005b3492902d6c76373ffffffffffffffffffffffffffffffffffffffff1673ffffffffffffffffffffffffffffffffffffffff1681525060029060056200017d92919062000968565b506040518060a00160405280737ca5b0a2910b33e9759dc7ddb0413949071d757573ffffffffffffffffffffffffffffffffffffffff1673ffffffffffffffffffffffffffffffffffffffff16815260200173fa712ee4788c042e2b7bb55e6cb8ec569c4530c173ffffffffffffffffffffffffffffffffffffffff1673ffffffffffffffffffffffffffffffffffffffff1681526020017369fb7c45726cfe2badee8317005d3f94be83884073ffffffffffffffffffffffffffffffffffffffff1673ffffffffffffffffffffffffffffffffffffffff16815260200173a90996896660decc6e997655e065b2378885784973ffffffffffffffffffffffffffffffffffffffff1673ffffffffffffffffffffffffffffffffffffffff1681526020017364e3c23bfc40722d3b649844055f1d51c1ac041d73ffffffffffffffffffffffffffffffffffffffff1673ffffffffffffffffffffffffffffffffffffffff168152506007906005620002f7929190620009ea565b5073d533a949740bb3306d119cc777fa900ba034cd52600c60006101000a81548173ffffffffffffffffffffffffffffffffffffffff021916908373ffffffffffffffffffffffffffffffffffffffff16021790555073b8baa0e4287890a5f79863ab62b7f175cecbd433600d60006101000a81548173ffffffffffffffffffffffffffffffffffffffff021916908373ffffffffffffffffffffffffffffffffffffffff16021790555073a0b86991c6218b36c1d19d4a2e9eb0ce3606eb48600e60006101000a81548173ffffffffffffffffffffffffffffffffffffffff021916908373ffffffffffffffffffffffffffffffffffffffff160217905550737a250d5630b4cf539739df2c5dacb4c659f2488d600f60006101000a81548173ffffffffffffffffffffffffffffffffffffffff021916908373ffffffffffffffffffffffffffffffffffffffff1602179055503480156200045957600080fd5b5060006200046c6200096060201b60201c565b9050806000806101000a81548173ffffffffffffffffffffffffffffffffffffffff021916908373ffffffffffffffffffffffffffffffffffffffff1602179055508073ffffffffffffffffffffffffffffffffffffffff16600073ffffffffffffffffffffffffffffffffffffffff167f8be0079c531659141344cd1fd0a4f28419497f9722a3daafe3b4186f6b6457e060405160405180910390a350604051620005189062000a6c565b604051809103906000f08015801562000535573d6000803e3d6000fd5b50600160006101000a81548173ffffffffffffffffffffffffffffffffffffffff021916908373ffffffffffffffffffffffffffffffffffffffff160217905550737ca5b0a2910b33e9759dc7ddb0413949071d75756010600073a2b47e3d5c44877cca798226b7b8118f9bfb7a5673ffffffffffffffffffffffffffffffffffffffff1673ffffffffffffffffffffffffffffffffffffffff16815260200190815260200160002060006101000a81548173ffffffffffffffffffffffffffffffffffffffff021916908373ffffffffffffffffffffffffffffffffffffffff16021790555073fa712ee4788c042e2b7bb55e6cb8ec569c4530c1601060007345f783cce6b7ff23b2ab2d70e416cdb7d6055f5173ffffffffffffffffffffffffffffffffffffffff1673ffffffffffffffffffffffffffffffffffffffff16815260200190815260200160002060006101000a81548173ffffffffffffffffffffffffffffffffffffffff021916908373ffffffffffffffffffffffffffffffffffffffff1602179055507369fb7c45726cfe2badee8317005d3f94be838840601060007379a8c46dea5ada233abaffd40f3a0a2b1e5a4f2773ffffffffffffffffffffffffffffffffffffffff1673ffffffffffffffffffffffffffffffffffffffff16815260200190815260200160002060006101000a81548173ffffffffffffffffffffffffffffffffffffffff021916908373ffffffffffffffffffffffffffffffffffffffff16021790555073a90996896660decc6e997655e065b237888578496010600073a5407eae9ba41422680e2e00537571bcc53efbfd73ffffffffffffffffffffffffffffffffffffffff1673ffffffffffffffffffffffffffffffffffffffff16815260200190815260200160002060006101000a81548173ffffffffffffffffffffffffffffffffffffffff021916908373ffffffffffffffffffffffffffffffffffffffff1602179055507364e3c23bfc40722d3b649844055f1d51c1ac041d601060007306364f10b501e868329afbc005b3492902d6c76373ffffffffffffffffffffffffffffffffffffffff1673ffffffffffffffffffffffffffffffffffffffff16815260200190815260200160002060006101000a81548173ffffffffffffffffffffffffffffffffffffffff021916908373ffffffffffffffffffffffffffffffffffffffff16021790555073b4d0c929cd3a1fbdc6d57e7d3315cf0c4d6b4bfa6010600073329239599afb305da0a2ec69c58f8a6697f9f88d73ffffffffffffffffffffffffffffffffffffffff1673ffffffffffffffffffffffffffffffffffffffff16815260200190815260200160002060006101000a81548173ffffffffffffffffffffffffffffffffffffffff021916908373ffffffffffffffffffffffffffffffffffffffff16021790555062000b06565b600033905090565b8260058101928215620009d7579160200282015b82811115620009d65782518260006101000a81548173ffffffffffffffffffffffffffffffffffffffff021916908373ffffffffffffffffffffffffffffffffffffffff160217905550916020019190600101906200097c565b5b509050620009e6919062000a7a565b5090565b826005810192821562000a59579160200282015b8281111562000a585782518260006101000a81548173ffffffffffffffffffffffffffffffffffffffff021916908373ffffffffffffffffffffffffffffffffffffffff16021790555091602001919060010190620009fe565b5b50905062000a68919062000ac0565b5090565b611f2f806200358d83390190565b62000abd91905b8082111562000ab957600081816101000a81549073ffffffffffffffffffffffffffffffffffffffff02191690555060010162000a81565b5090565b90565b62000b0391905b8082111562000aff57600081816101000a81549073ffffffffffffffffffffffffffffffffffffffff02191690555060010162000ac7565b5090565b90565b612a778062000b166000396000f3fe608060405234801561001057600080fd5b50600436106100cf5760003560e01c80638da5cb5b1161008c578063e25aa5fa11610066578063e25aa5fa14610354578063e5691c0e14610372578063f2fde38b14610394578063f3fef3a3146103d8576100cf565b80638da5cb5b14610276578063be29a65e146102c0578063dceb0b651461030a576100cf565b80630f390e4d146100d457806311eac85514610158578063372500ab146101a257806347e7ef24146101c05780634f39059c14610222578063715018a61461026c575b600080fd5b610116600480360360208110156100ea57600080fd5b81019080803573ffffffffffffffffffffffffffffffffffffffff16906020019092919050505061043a565b604051808273ffffffffffffffffffffffffffffffffffffffff1673ffffffffffffffffffffffffffffffffffffffff16815260200191505060405180910390f35b61016061046d565b604051808273ffffffffffffffffffffffffffffffffffffffff1673ffffffffffffffffffffffffffffffffffffffff16815260200191505060405180910390f35b6101aa610493565b6040518082815260200191505060405180910390f35b61020c600480360360408110156101d657600080fd5b81019080803573ffffffffffffffffffffffffffffffffffffffff16906020019092919080359060200190929190505050610498565b6040518082815260200191505060405180910390f35b61022a610c10565b604051808273ffffffffffffffffffffffffffffffffffffffff1673ffffffffffffffffffffffffffffffffffffffff16815260200191505060405180910390f35b610274610c36565b005b61027e610dbe565b604051808273ffffffffffffffffffffffffffffffffffffffff1673ffffffffffffffffffffffffffffffffffffffff16815260200191505060405180910390f35b6102c8610de7565b604051808273ffffffffffffffffffffffffffffffffffffffff1673ffffffffffffffffffffffffffffffffffffffff16815260200191505060405180910390f35b610312610e0d565b604051808273ffffffffffffffffffffffffffffffffffffffff1673ffffffffffffffffffffffffffffffffffffffff16815260200191505060405180910390f35b61035c610e33565b6040518082815260200191505060405180910390f35b61037a611162565b604051808215151515815260200191505060405180910390f35b6103d6600480360360208110156103aa57600080fd5b81019080803573ffffffffffffffffffffffffffffffffffffffff1690602001909291905050506112d7565b005b610424600480360360408110156103ee57600080fd5b81019080803573ffffffffffffffffffffffffffffffffffffffff169060200190929190803590602001909291905050506114e4565b6040518082815260200191505060405180910390f35b60106020528060005260406000206000915054906101000a900473ffffffffffffffffffffffffffffffffffffffff1681565b600e60009054906101000a900473ffffffffffffffffffffffffffffffffffffffff1681565b600090565b600080601060008573ffffffffffffffffffffffffffffffffffffffff1673ffffffffffffffffffffffffffffffffffffffff16815260200190815260200160002060009054906101000a900473ffffffffffffffffffffffffffffffffffffffff169050600073ffffffffffffffffffffffffffffffffffffffff168173ffffffffffffffffffffffffffffffffffffffff1614156105a0576040517f08c379a00000000000000000000000000000000000000000000000000000000081526004018080602001828103825260148152602001807f496e76616c69642073776170206164647265737300000000000000000000000081525060200191505060405180910390fd5b60008311610616576040517f08c379a000000000000000000000000000000000000000000000000000000000815260040180806020018281038252600c8152602001807f5f616d6f756e74203d3d2030000000000000000000000000000000000000000081525060200191505060405180910390fd5b60008173ffffffffffffffffffffffffffffffffffffffff16635fcbd2856040518163ffffffff1660e01b815260040160206040518083038186803b15801561065e57600080fd5b505afa158015610672573d6000803e3d6000fd5b505050506040513d602081101561068857600080fd5b81019080805190602001909291905050509050838173ffffffffffffffffffffffffffffffffffffffff1663dd62ed3e33306040518363ffffffff1660e01b8152600401808373ffffffffffffffffffffffffffffffffffffffff1673ffffffffffffffffffffffffffffffffffffffff1681526020018273ffffffffffffffffffffffffffffffffffffffff1673ffffffffffffffffffffffffffffffffffffffff1681526020019250505060206040518083038186803b15801561074d57600080fd5b505afa158015610761573d6000803e3d6000fd5b505050506040513d602081101561077757600080fd5b810190808051906020019092919050505010156107fc576040517f08c379a00000000000000000000000000000000000000000000000000000000081526004018080602001828103825260138152602001807f616c6c6f77616e6365203c205f616d6f756e740000000000000000000000000081525060200191505060405180910390fd5b8073ffffffffffffffffffffffffffffffffffffffff166323b872dd3330876040518463ffffffff1660e01b8152600401808473ffffffffffffffffffffffffffffffffffffffff1673ffffffffffffffffffffffffffffffffffffffff1681526020018373ffffffffffffffffffffffffffffffffffffffff1673ffffffffffffffffffffffffffffffffffffffff1681526020018281526020019350505050602060405180830381600087803b1580156108b757600080fd5b505af11580156108cb573d6000803e3d6000fd5b505050506040513d60208110156108e157600080fd5b8101908080519060200190929190505050610964576040517f08c379a00000000000000000000000000000000000000000000000000000000081526004018080602001828103825260198152602001807f4572726f72207769746820746f6b656e207472616e736665720000000000000081525060200191505060405180910390fd5b600061096e610e33565b905061099d670de0b6b3a764000061098f8388611e0590919063ffffffff16565b611e8b90919063ffffffff16565b93508273ffffffffffffffffffffffffffffffffffffffff16636e553f6586306040518363ffffffff1660e01b8152600401808381526020018273ffffffffffffffffffffffffffffffffffffffff1673ffffffffffffffffffffffffffffffffffffffff16815260200192505050600060405180830381600087803b158015610a2657600080fd5b505af1158015610a3a573d6000803e3d6000fd5b50505050600160009054906101000a900473ffffffffffffffffffffffffffffffffffffffff1673ffffffffffffffffffffffffffffffffffffffff166340c10f1933866040518363ffffffff1660e01b8152600401808373ffffffffffffffffffffffffffffffffffffffff1673ffffffffffffffffffffffffffffffffffffffff16815260200182815260200192505050602060405180830381600087803b158015610ae757600080fd5b505af1158015610afb573d6000803e3d6000fd5b505050506040513d6020811015610b1157600080fd5b8101908080519060200190929190505050610b94576040517f08c379a00000000000000000000000000000000000000000000000000000000081526004018080602001828103825260138152602001807f4572726f72206d696e74696e672058535553440000000000000000000000000081525060200191505060405180910390fd5b7f90890809c654f11d6e72a28fa60149770a0d11ec6c92319d6ceb2bb0a4ea1a15338686604051808473ffffffffffffffffffffffffffffffffffffffff1673ffffffffffffffffffffffffffffffffffffffff168152602001838152602001828152602001935050505060405180910390a150505092915050565b600c60009054906101000a900473ffffffffffffffffffffffffffffffffffffffff1681565b610c3e611ed5565b73ffffffffffffffffffffffffffffffffffffffff166000809054906101000a900473ffffffffffffffffffffffffffffffffffffffff1673ffffffffffffffffffffffffffffffffffffffff1614610cff576040517f08c379a00000000000000000000000000000000000000000000000000000000081526004018080602001828103825260208152602001807f4f776e61626c653a2063616c6c6572206973206e6f7420746865206f776e657281525060200191505060405180910390fd5b600073ffffffffffffffffffffffffffffffffffffffff166000809054906101000a900473ffffffffffffffffffffffffffffffffffffffff1673ffffffffffffffffffffffffffffffffffffffff167f8be0079c531659141344cd1fd0a4f28419497f9722a3daafe3b4186f6b6457e060405160405180910390a360008060006101000a81548173ffffffffffffffffffffffffffffffffffffffff021916908373ffffffffffffffffffffffffffffffffffffffff160217905550565b60008060009054906101000a900473ffffffffffffffffffffffffffffffffffffffff16905090565b600160009054906101000a900473ffffffffffffffffffffffffffffffffffffffff1681565b600d60009054906101000a900473ffffffffffffffffffffffffffffffffffffffff1681565b600080600160009054906101000a900473ffffffffffffffffffffffffffffffffffffffff1673ffffffffffffffffffffffffffffffffffffffff166318160ddd6040518163ffffffff1660e01b815260040160206040518083038186803b158015610e9e57600080fd5b505afa158015610eb2573d6000803e3d6000fd5b505050506040513d6020811015610ec857600080fd5b81019080805190602001909291905050509050600080600090505b60058160ff16101561112d57600060028260ff1660058110610f0157fe5b0160009054906101000a900473ffffffffffffffffffffffffffffffffffffffff1673ffffffffffffffffffffffffffffffffffffffff1663bb7b8b806040518163ffffffff1660e01b815260040160206040518083038186803b158015610f6857600080fd5b505afa158015610f7c573d6000803e3d6000fd5b505050506040513d6020811015610f9257600080fd5b8101908080519060200190929190505050905060006010600060028560ff1660058110610fbb57fe5b0160009054906101000a900473ffffffffffffffffffffffffffffffffffffffff1673ffffffffffffffffffffffffffffffffffffffff1673ffffffffffffffffffffffffffffffffffffffff16815260200190815260200160002060009054906101000a900473ffffffffffffffffffffffffffffffffffffffff16905060008173ffffffffffffffffffffffffffffffffffffffff166370a08231306040518263ffffffff1660e01b8152600401808273ffffffffffffffffffffffffffffffffffffffff1673ffffffffffffffffffffffffffffffffffffffff16815260200191505060206040518083038186803b1580156110b957600080fd5b505afa1580156110cd573d6000803e3d6000fd5b505050506040513d60208110156110e357600080fd5b8101908080519060200190929190505050905061111b61110c8483611e0590919063ffffffff16565b86611edd90919063ffffffff16565b94505050508080600101915050610ee3565b5061115b8261114d670de0b6b3a764000084611e0590919063ffffffff16565b611e8b90919063ffffffff16565b9250505090565b600061116c611f65565b6111de576040517f08c379a00000000000000000000000000000000000000000000000000000000081526004018080602001828103825260198152602001807f4572726f72206d696e74696e672043525620726577617264730000000000000081525060200191505060405180910390fd5b6111e661217d565b611258576040517f08c379a000000000000000000000000000000000000000000000000000000000815260040180806020018281038252601a8152602001807f4572726f72206d696e74696e672053575256207265776172647300000000000081525060200191505060405180910390fd5b6000611262612319565b90507fb354dfb45df4e9bf69de15ca2347165e073497ee54f5824a818c4de4645a3fce3382604051808373ffffffffffffffffffffffffffffffffffffffff1673ffffffffffffffffffffffffffffffffffffffff1681526020018281526020019250505060405180910390a1600191505090565b6112df611ed5565b73ffffffffffffffffffffffffffffffffffffffff166000809054906101000a900473ffffffffffffffffffffffffffffffffffffffff1673ffffffffffffffffffffffffffffffffffffffff16146113a0576040517f08c379a00000000000000000000000000000000000000000000000000000000081526004018080602001828103825260208152602001807f4f776e61626c653a2063616c6c6572206973206e6f7420746865206f776e657281525060200191505060405180910390fd5b600073ffffffffffffffffffffffffffffffffffffffff168173ffffffffffffffffffffffffffffffffffffffff161415611426576040517f08c379a00000000000000000000000000000000000000000000000000000000081526004018080602001828103825260268152602001806129cd6026913960400191505060405180910390fd5b8073ffffffffffffffffffffffffffffffffffffffff166000809054906101000a900473ffffffffffffffffffffffffffffffffffffffff1673ffffffffffffffffffffffffffffffffffffffff167f8be0079c531659141344cd1fd0a4f28419497f9722a3daafe3b4186f6b6457e060405160405180910390a3806000806101000a81548173ffffffffffffffffffffffffffffffffffffffff021916908373ffffffffffffffffffffffffffffffffffffffff16021790555050565b600080601060008573ffffffffffffffffffffffffffffffffffffffff1673ffffffffffffffffffffffffffffffffffffffff16815260200190815260200160002060009054906101000a900473ffffffffffffffffffffffffffffffffffffffff169050600073ffffffffffffffffffffffffffffffffffffffff168173ffffffffffffffffffffffffffffffffffffffff1614156115ec576040517f08c379a00000000000000000000000000000000000000000000000000000000081526004018080602001828103825260148152602001807f496e76616c69642073776170206164647265737300000000000000000000000081525060200191505060405180910390fd5b60008311611662576040517f08c379a000000000000000000000000000000000000000000000000000000000815260040180806020018281038252600c8152602001807f5f616d6f756e74203d3d2030000000000000000000000000000000000000000081525060200191505060405180910390fd5b60008173ffffffffffffffffffffffffffffffffffffffff16635fcbd2856040518163ffffffff1660e01b815260040160206040518083038186803b1580156116aa57600080fd5b505afa1580156116be573d6000803e3d6000fd5b505050506040513d60208110156116d457600080fd5b8101908080519060200190929190505050905060008573ffffffffffffffffffffffffffffffffffffffff1663bb7b8b806040518163ffffffff1660e01b815260040160206040518083038186803b15801561172f57600080fd5b505afa158015611743573d6000803e3d6000fd5b505050506040513d602081101561175957600080fd5b8101908080519060200190929190505050905084600160009054906101000a900473ffffffffffffffffffffffffffffffffffffffff1673ffffffffffffffffffffffffffffffffffffffff1663dd62ed3e33306040518363ffffffff1660e01b8152600401808373ffffffffffffffffffffffffffffffffffffffff1673ffffffffffffffffffffffffffffffffffffffff1681526020018273ffffffffffffffffffffffffffffffffffffffff1673ffffffffffffffffffffffffffffffffffffffff1681526020019250505060206040518083038186803b15801561184057600080fd5b505afa158015611854573d6000803e3d6000fd5b505050506040513d602081101561186a57600080fd5b810190808051906020019092919050505010156118ef576040517f08c379a00000000000000000000000000000000000000000000000000000000081526004018080602001828103825260138152602001807f616c6c6f77616e6365203c205f616d6f756e740000000000000000000000000081525060200191505060405180910390fd5b611936670de0b6b3a76400006119288361191a670de0b6b3a76400008a611e0590919063ffffffff16565b611e8b90919063ffffffff16565b611e8b90919063ffffffff16565b93506000611a38670de0b6b3a7640000611a2a84611a1c670de0b6b3a76400008873ffffffffffffffffffffffffffffffffffffffff166370a08231306040518263ffffffff1660e01b8152600401808273ffffffffffffffffffffffffffffffffffffffff1673ffffffffffffffffffffffffffffffffffffffff16815260200191505060206040518083038186803b1580156119d357600080fd5b505afa1580156119e7573d6000803e3d6000fd5b505050506040513d60208110156119fd57600080fd5b8101908080519060200190929190505050611e0590919063ffffffff16565b611e8b90919063ffffffff16565b611e8b90919063ffffffff16565b905080851115611a93576040517f08c379a000000000000000000000000000000000000000000000000000000000815260040180806020018281038252602e815260200180612a14602e913960400191505060405180910390fd5b8373ffffffffffffffffffffffffffffffffffffffff16632e1a7d4d866040518263ffffffff1660e01b815260040180828152602001915050600060405180830381600087803b158015611ae657600080fd5b505af1158015611afa573d6000803e3d6000fd5b505050508273ffffffffffffffffffffffffffffffffffffffff1663a9059cbb33876040518363ffffffff1660e01b8152600401808373ffffffffffffffffffffffffffffffffffffffff1673ffffffffffffffffffffffffffffffffffffffff16815260200182815260200192505050602060405180830381600087803b158015611b8557600080fd5b505af1158015611b99573d6000803e3d6000fd5b505050506040513d6020811015611baf57600080fd5b8101908080519060200190929190505050611c32576040517f08c379a000000000000000000000000000000000000000000000000000000000815260040180806020018281038252601c8152602001807f4572726f72207472616e7366657272696e67206c7020746f6b656e730000000081525060200191505060405180910390fd5b600160009054906101000a900473ffffffffffffffffffffffffffffffffffffffff1673ffffffffffffffffffffffffffffffffffffffff166379cc679033886040518363ffffffff1660e01b8152600401808373ffffffffffffffffffffffffffffffffffffffff1673ffffffffffffffffffffffffffffffffffffffff16815260200182815260200192505050602060405180830381600087803b158015611cdb57600080fd5b505af1158015611cef573d6000803e3d6000fd5b505050506040513d6020811015611d0557600080fd5b8101908080519060200190929190505050611d88576040517f08c379a000000000000000000000000000000000000000000000000000000000815260040180806020018281038252601f8152602001807f4572726f722077697468207873557364206275726e2066726f6d20757365720081525060200191505060405180910390fd5b7ff279e6a1f5e320cca91135676d9cb6e44ca8a08c0b88342bcdb1144f6511b568338787604051808473ffffffffffffffffffffffffffffffffffffffff1673ffffffffffffffffffffffffffffffffffffffff168152602001838152602001828152602001935050505060405180910390a15050505092915050565b600080831415611e185760009050611e85565b6000828402905082848281611e2957fe5b0414611e80576040517f08c379a00000000000000000000000000000000000000000000000000000000081526004018080602001828103825260218152602001806129f36021913960400191505060405180910390fd5b809150505b92915050565b6000611ecd83836040518060400160405280601a81526020017f536166654d6174683a206469766973696f6e206279207a65726f00000000000081525061237c565b905092915050565b600033905090565b600080828401905083811015611f5b576040517f08c379a000000000000000000000000000000000000000000000000000000000815260040180806020018281038252601b8152602001807f536166654d6174683a206164646974696f6e206f766572666c6f77000000000081525060200191505060405180910390fd5b8091505092915050565b6000611f6f6129a9565b60008090505b60058160ff1610156120cd57600060078260ff1660058110611f9357fe5b0160009054906101000a900473ffffffffffffffffffffffffffffffffffffffff16905060008173ffffffffffffffffffffffffffffffffffffffff166333134583306040518263ffffffff1660e01b8152600401808273ffffffffffffffffffffffffffffffffffffffff1673ffffffffffffffffffffffffffffffffffffffff16815260200191505060206040518083038186803b15801561203657600080fd5b505afa15801561204a573d6000803e3d6000fd5b505050506040513d602081101561206057600080fd5b810190808051906020019092919050505011156120bf5780838360ff166008811061208757fe5b602002019073ffffffffffffffffffffffffffffffffffffffff16908173ffffffffffffffffffffffffffffffffffffffff16815250505b508080600101915050611f75565b5073d061d61a4d941c39e5453435b6345dc261c2fce073ffffffffffffffffffffffffffffffffffffffff1663a51e1904826040518263ffffffff1660e01b81526004018082600860200280838360005b8381101561213957808201518184015260208101905061211e565b50505050905001915050600060405180830381600087803b15801561215d57600080fd5b505af1158015612171573d6000803e3d6000fd5b50505050600191505090565b60008073b4d0c929cd3a1fbdc6d57e7d3315cf0c4d6b4bfa73ffffffffffffffffffffffffffffffffffffffff166333134583306040518263ffffffff1660e01b8152600401808273ffffffffffffffffffffffffffffffffffffffff1673ffffffffffffffffffffffffffffffffffffffff16815260200191505060206040518083038186803b15801561221157600080fd5b505afa158015612225573d6000803e3d6000fd5b505050506040513d602081101561223b57600080fd5b8101908080519060200190929190505050111561231257732c988c3974ad7e604e276ae0294a7228def6797473ffffffffffffffffffffffffffffffffffffffff16636a62784273b4d0c929cd3a1fbdc6d57e7d3315cf0c4d6b4bfa6040518263ffffffff1660e01b8152600401808273ffffffffffffffffffffffffffffffffffffffff1673ffffffffffffffffffffffffffffffffffffffff168152602001915050600060405180830381600087803b1580156122f957600080fd5b505af115801561230d573d6000803e3d6000fd5b505050505b6001905090565b6000612346600c60009054906101000a900473ffffffffffffffffffffffffffffffffffffffff16612442565b81019050612375600d60009054906101000a900473ffffffffffffffffffffffffffffffffffffffff16612442565b8101905090565b60008083118290612428576040517f08c379a00000000000000000000000000000000000000000000000000000000081526004018080602001828103825283818151815260200191508051906020019080838360005b838110156123ed5780820151818401526020810190506123d2565b50505050905090810190601f16801561241a5780820380516001836020036101000a031916815260200191505b509250505060405180910390fd5b50600083858161243457fe5b049050809150509392505050565b60006060600267ffffffffffffffff8111801561245e57600080fd5b5060405190808252806020026020018201604052801561248d5781602001602082028036833780820191505090505b509050828160008151811061249e57fe5b602002602001019073ffffffffffffffffffffffffffffffffffffffff16908173ffffffffffffffffffffffffffffffffffffffff1681525050600e60009054906101000a900473ffffffffffffffffffffffffffffffffffffffff168160018151811061250857fe5b602002602001019073ffffffffffffffffffffffffffffffffffffffff16908173ffffffffffffffffffffffffffffffffffffffff16815250506000600e60009054906101000a900473ffffffffffffffffffffffffffffffffffffffff1673ffffffffffffffffffffffffffffffffffffffff166370a08231306040518263ffffffff1660e01b8152600401808273ffffffffffffffffffffffffffffffffffffffff1673ffffffffffffffffffffffffffffffffffffffff16815260200191505060206040518083038186803b1580156125e357600080fd5b505afa1580156125f7573d6000803e3d6000fd5b505050506040513d602081101561260d57600080fd5b81019080805190602001909291905050509050600f60009054906101000a900473ffffffffffffffffffffffffffffffffffffffff1673ffffffffffffffffffffffffffffffffffffffff166338ed17398573ffffffffffffffffffffffffffffffffffffffff166370a08231306040518263ffffffff1660e01b8152600401808273ffffffffffffffffffffffffffffffffffffffff1673ffffffffffffffffffffffffffffffffffffffff16815260200191505060206040518083038186803b1580156126db57600080fd5b505afa1580156126ef573d6000803e3d6000fd5b505050506040513d602081101561270557600080fd5b81019080805190602001909291905050506000853061272f61070842611edd90919063ffffffff16565b6040518663ffffffff1660e01b815260040180868152602001858152602001806020018473ffffffffffffffffffffffffffffffffffffffff1673ffffffffffffffffffffffffffffffffffffffff168152602001838152602001828103825285818151815260200191508051906020019060200280838360005b838110156127c55780820151818401526020810190506127aa565b505050509050019650505050505050600060405180830381600087803b1580156127ee57600080fd5b505af1158015612802573d6000803e3d6000fd5b505050506040513d6000823e3d601f19601f82011682018060405250602081101561282c57600080fd5b810190808051604051939291908464010000000082111561284c57600080fd5b8382019150602082018581111561286257600080fd5b825186602082028301116401000000008211171561287f57600080fd5b8083526020830192505050908051906020019060200280838360005b838110156128b657808201518184015260208101905061289b565b505050509050016040525050505080600e60009054906101000a900473ffffffffffffffffffffffffffffffffffffffff1673ffffffffffffffffffffffffffffffffffffffff166370a08231306040518263ffffffff1660e01b8152600401808273ffffffffffffffffffffffffffffffffffffffff1673ffffffffffffffffffffffffffffffffffffffff16815260200191505060206040518083038186803b15801561296457600080fd5b505afa158015612978573d6000803e3d6000fd5b505050506040513d602081101561298e57600080fd5b81019080805190602001909291905050500392505050919050565b60405180610100016040528060089060208202803683378082019150509050509056fe4f776e61626c653a206e6577206f776e657220697320746865207a65726f2061646472657373536166654d6174683a206d756c7469706c69636174696f6e206f766572666c6f77776974686472617761626c654c70546f6b656e73203e206d6178576974686472617761626c654c70546f6b656e73a264697066735822122085b6ec0dbee8187331e532241e64f917bfcd20106d35ccd2b589f2e9e8add13364736f6c634300060a003360806040523480156200001157600080fd5b506040518060400160405280600b81526020017f58537461626c65205553440000000000000000000000000000000000000000008152506040518060400160405280600581526020017f58535553440000000000000000000000000000000000000000000000000000008152508160039080519060200190620000969291906200018d565b508060049080519060200190620000af9291906200018d565b506012600560006101000a81548160ff021916908360ff16021790555050506000620000e06200018560201b60201c565b905080600560016101000a81548173ffffffffffffffffffffffffffffffffffffffff021916908373ffffffffffffffffffffffffffffffffffffffff1602179055508073ffffffffffffffffffffffffffffffffffffffff16600073ffffffffffffffffffffffffffffffffffffffff167f8be0079c531659141344cd1fd0a4f28419497f9722a3daafe3b4186f6b6457e060405160405180910390a3506200023c565b600033905090565b828054600181600116156101000203166002900490600052602060002090601f016020900481019282601f10620001d057805160ff191683800117855562000201565b8280016001018555821562000201579182015b8281111562000200578251825591602001919060010190620001e3565b5b50905062000210919062000214565b5090565b6200023991905b80821115620002355760008160009055506001016200021b565b5090565b90565b611ce3806200024c6000396000f3fe608060405234801561001057600080fd5b50600436106101005760003560e01c8063715018a611610097578063a457c2d711610066578063a457c2d714610517578063a9059cbb1461057d578063dd62ed3e146105e3578063f2fde38b1461065b57610100565b8063715018a6146103da57806379cc6790146103e45780638da5cb5b1461044a57806395d89b411461049457610100565b8063313ce567116100d3578063313ce5671461029257806339509351146102b657806340c10f191461031c57806370a082311461038257610100565b806306fdde0314610105578063095ea7b31461018857806318160ddd146101ee57806323b872dd1461020c575b600080fd5b61010d61069f565b6040518080602001828103825283818151815260200191508051906020019080838360005b8381101561014d578082015181840152602081019050610132565b50505050905090810190601f16801561017a5780820380516001836020036101000a031916815260200191505b509250505060405180910390f35b6101d46004803603604081101561019e57600080fd5b81019080803573ffffffffffffffffffffffffffffffffffffffff16906020019092919080359060200190929190505050610741565b604051808215151515815260200191505060405180910390f35b6101f661075f565b6040518082815260200191505060405180910390f35b6102786004803603606081101561022257600080fd5b81019080803573ffffffffffffffffffffffffffffffffffffffff169060200190929190803573ffffffffffffffffffffffffffffffffffffffff16906020019092919080359060200190929190505050610769565b604051808215151515815260200191505060405180910390f35b61029a610842565b604051808260ff1660ff16815260200191505060405180910390f35b610302600480360360408110156102cc57600080fd5b81019080803573ffffffffffffffffffffffffffffffffffffffff16906020019092919080359060200190929190505050610859565b604051808215151515815260200191505060405180910390f35b6103686004803603604081101561033257600080fd5b81019080803573ffffffffffffffffffffffffffffffffffffffff1690602001909291908035906020019092919050505061090c565b604051808215151515815260200191505060405180910390f35b6103c46004803603602081101561039857600080fd5b81019080803573ffffffffffffffffffffffffffffffffffffffff1690602001909291905050506109ec565b6040518082815260200191505060405180910390f35b6103e2610a34565b005b610430600480360360408110156103fa57600080fd5b81019080803573ffffffffffffffffffffffffffffffffffffffff16906020019092919080359060200190929190505050610bbf565b604051808215151515815260200191505060405180910390f35b610452610cef565b604051808273ffffffffffffffffffffffffffffffffffffffff1673ffffffffffffffffffffffffffffffffffffffff16815260200191505060405180910390f35b61049c610d19565b6040518080602001828103825283818151815260200191508051906020019080838360005b838110156104dc5780820151818401526020810190506104c1565b50505050905090810190601f1680156105095780820380516001836020036101000a031916815260200191505b509250505060405180910390f35b6105636004803603604081101561052d57600080fd5b81019080803573ffffffffffffffffffffffffffffffffffffffff16906020019092919080359060200190929190505050610dbb565b604051808215151515815260200191505060405180910390f35b6105c96004803603604081101561059357600080fd5b81019080803573ffffffffffffffffffffffffffffffffffffffff16906020019092919080359060200190929190505050610e88565b604051808215151515815260200191505060405180910390f35b610645600480360360408110156105f957600080fd5b81019080803573ffffffffffffffffffffffffffffffffffffffff169060200190929190803573ffffffffffffffffffffffffffffffffffffffff169060200190929190505050610ea6565b6040518082815260200191505060405180910390f35b61069d6004803603602081101561067157600080fd5b81019080803573ffffffffffffffffffffffffffffffffffffffff169060200190929190505050610f2d565b005b606060038054600181600116156101000203166002900480601f0160208091040260200160405190810160405280929190818152602001828054600181600116156101000203166002900480156107375780601f1061070c57610100808354040283529160200191610737565b820191906000526020600020905b81548152906001019060200180831161071a57829003601f168201915b5050505050905090565b600061075561074e61113d565b8484611145565b6001905092915050565b6000600254905090565b600061077684848461133c565b6108378461078261113d565b61083285604051806060016040528060288152602001611bd360289139600160008b73ffffffffffffffffffffffffffffffffffffffff1673ffffffffffffffffffffffffffffffffffffffff16815260200190815260200160002060006107e861113d565b73ffffffffffffffffffffffffffffffffffffffff1673ffffffffffffffffffffffffffffffffffffffff168152602001908152602001600020546115fd9092919063ffffffff16565b611145565b600190509392505050565b6000600560009054906101000a900460ff16905090565b600061090261086661113d565b846108fd856001600061087761113d565b73ffffffffffffffffffffffffffffffffffffffff1673ffffffffffffffffffffffffffffffffffffffff16815260200190815260200160002060008973ffffffffffffffffffffffffffffffffffffffff1673ffffffffffffffffffffffffffffffffffffffff168152602001908152602001600020546116bd90919063ffffffff16565b611145565b6001905092915050565b600061091661113d565b73ffffffffffffffffffffffffffffffffffffffff16600560019054906101000a900473ffffffffffffffffffffffffffffffffffffffff1673ffffffffffffffffffffffffffffffffffffffff16146109d8576040517f08c379a00000000000000000000000000000000000000000000000000000000081526004018080602001828103825260208152602001807f4f776e61626c653a2063616c6c6572206973206e6f7420746865206f776e657281525060200191505060405180910390fd5b6109e28383611745565b6001905092915050565b60008060008373ffffffffffffffffffffffffffffffffffffffff1673ffffffffffffffffffffffffffffffffffffffff168152602001908152602001600020549050919050565b610a3c61113d565b73ffffffffffffffffffffffffffffffffffffffff16600560019054906101000a900473ffffffffffffffffffffffffffffffffffffffff1673ffffffffffffffffffffffffffffffffffffffff1614610afe576040517f08c379a00000000000000000000000000000000000000000000000000000000081526004018080602001828103825260208152602001807f4f776e61626c653a2063616c6c6572206973206e6f7420746865206f776e657281525060200191505060405180910390fd5b600073ffffffffffffffffffffffffffffffffffffffff16600560019054906101000a900473ffffffffffffffffffffffffffffffffffffffff1673ffffffffffffffffffffffffffffffffffffffff167f8be0079c531659141344cd1fd0a4f28419497f9722a3daafe3b4186f6b6457e060405160405180910390a36000600560016101000a81548173ffffffffffffffffffffffffffffffffffffffff021916908373ffffffffffffffffffffffffffffffffffffffff160217905550565b6000610bc961113d565b73ffffffffffffffffffffffffffffffffffffffff16600560019054906101000a900473ffffffffffffffffffffffffffffffffffffffff1673ffffffffffffffffffffffffffffffffffffffff1614610c8b576040517f08c379a00000000000000000000000000000000000000000000000000000000081526004018080602001828103825260208152602001807f4f776e61626c653a2063616c6c6572206973206e6f7420746865206f776e657281525060200191505060405180910390fd5b6000610cca83604051806060016040528060248152602001611bfb60249139610cbb87610cb661113d565b610ea6565b6115fd9092919063ffffffff16565b9050610cde84610cd861113d565b83611145565b610ce8848461190c565b5092915050565b6000600560019054906101000a900473ffffffffffffffffffffffffffffffffffffffff16905090565b606060048054600181600116156101000203166002900480601f016020809104026020016040519081016040528092919081815260200182805460018160011615610100020316600290048015610db15780601f10610d8657610100808354040283529160200191610db1565b820191906000526020600020905b815481529060010190602001808311610d9457829003601f168201915b5050505050905090565b6000610e7e610dc861113d565b84610e7985604051806060016040528060258152602001611c896025913960016000610df261113d565b73ffffffffffffffffffffffffffffffffffffffff1673ffffffffffffffffffffffffffffffffffffffff16815260200190815260200160002060008a73ffffffffffffffffffffffffffffffffffffffff1673ffffffffffffffffffffffffffffffffffffffff168152602001908152602001600020546115fd9092919063ffffffff16565b611145565b6001905092915050565b6000610e9c610e9561113d565b848461133c565b6001905092915050565b6000600160008473ffffffffffffffffffffffffffffffffffffffff1673ffffffffffffffffffffffffffffffffffffffff16815260200190815260200160002060008373ffffffffffffffffffffffffffffffffffffffff1673ffffffffffffffffffffffffffffffffffffffff16815260200190815260200160002054905092915050565b610f3561113d565b73ffffffffffffffffffffffffffffffffffffffff16600560019054906101000a900473ffffffffffffffffffffffffffffffffffffffff1673ffffffffffffffffffffffffffffffffffffffff1614610ff7576040517f08c379a00000000000000000000000000000000000000000000000000000000081526004018080602001828103825260208152602001807f4f776e61626c653a2063616c6c6572206973206e6f7420746865206f776e657281525060200191505060405180910390fd5b600073ffffffffffffffffffffffffffffffffffffffff168173ffffffffffffffffffffffffffffffffffffffff16141561107d576040517f08c379a0000000000000000000000000000000000000000000000000000000008152600401808060200182810382526026815260200180611b656026913960400191505060405180910390fd5b8073ffffffffffffffffffffffffffffffffffffffff16600560019054906101000a900473ffffffffffffffffffffffffffffffffffffffff1673ffffffffffffffffffffffffffffffffffffffff167f8be0079c531659141344cd1fd0a4f28419497f9722a3daafe3b4186f6b6457e060405160405180910390a380600560016101000a81548173ffffffffffffffffffffffffffffffffffffffff021916908373ffffffffffffffffffffffffffffffffffffffff16021790555050565b600033905090565b600073ffffffffffffffffffffffffffffffffffffffff168373ffffffffffffffffffffffffffffffffffffffff1614156111cb576040517f08c379a0000000000000000000000000000000000000000000000000000000008152600401808060200182810382526024815260200180611c656024913960400191505060405180910390fd5b600073ffffffffffffffffffffffffffffffffffffffff168273ffffffffffffffffffffffffffffffffffffffff161415611251576040517f08c379a0000000000000000000000000000000000000000000000000000000008152600401808060200182810382526022815260200180611b8b6022913960400191505060405180910390fd5b80600160008573ffffffffffffffffffffffffffffffffffffffff1673ffffffffffffffffffffffffffffffffffffffff16815260200190815260200160002060008473ffffffffffffffffffffffffffffffffffffffff1673ffffffffffffffffffffffffffffffffffffffff168152602001908152602001600020819055508173ffffffffffffffffffffffffffffffffffffffff168373ffffffffffffffffffffffffffffffffffffffff167f8c5be1e5ebec7d5bd14f71427d1e84f3dd0314c0f7b2291e5b200ac8c7c3b925836040518082815260200191505060405180910390a3505050565b600073ffffffffffffffffffffffffffffffffffffffff168373ffffffffffffffffffffffffffffffffffffffff1614156113c2576040517f08c379a0000000000000000000000000000000000000000000000000000000008152600401808060200182810382526025815260200180611c406025913960400191505060405180910390fd5b600073ffffffffffffffffffffffffffffffffffffffff168273ffffffffffffffffffffffffffffffffffffffff161415611448576040517f08c379a0000000000000000000000000000000000000000000000000000000008152600401808060200182810382526023815260200180611b206023913960400191505060405180910390fd5b611453838383611ad0565b6114be81604051806060016040528060268152602001611bad602691396000808773ffffffffffffffffffffffffffffffffffffffff1673ffffffffffffffffffffffffffffffffffffffff168152602001908152602001600020546115fd9092919063ffffffff16565b6000808573ffffffffffffffffffffffffffffffffffffffff1673ffffffffffffffffffffffffffffffffffffffff16815260200190815260200160002081905550611551816000808573ffffffffffffffffffffffffffffffffffffffff1673ffffffffffffffffffffffffffffffffffffffff168152602001908152602001600020546116bd90919063ffffffff16565b6000808473ffffffffffffffffffffffffffffffffffffffff1673ffffffffffffffffffffffffffffffffffffffff168152602001908152602001600020819055508173ffffffffffffffffffffffffffffffffffffffff168373ffffffffffffffffffffffffffffffffffffffff167fddf252ad1be2c89b69c2b068fc378daa952ba7f163c4a11628f55a4df523b3ef836040518082815260200191505060405180910390a3505050565b60008383111582906116aa576040517f08c379a00000000000000000000000000000000000000000000000000000000081526004018080602001828103825283818151815260200191508051906020019080838360005b8381101561166f578082015181840152602081019050611654565b50505050905090810190601f16801561169c5780820380516001836020036101000a031916815260200191505b509250505060405180910390fd5b5060008385039050809150509392505050565b60008082840190508381101561173b576040517f08c379a000000000000000000000000000000000000000000000000000000000815260040180806020018281038252601b8152602001807f536166654d6174683a206164646974696f6e206f766572666c6f77000000000081525060200191505060405180910390fd5b8091505092915050565b600073ffffffffffffffffffffffffffffffffffffffff168273ffffffffffffffffffffffffffffffffffffffff1614156117e8576040517f08c379a000000000000000000000000000000000000000000000000000000000815260040180806020018281038252601f8152602001807f45524332303a206d696e7420746f20746865207a65726f20616464726573730081525060200191505060405180910390fd5b6117f460008383611ad0565b611809816002546116bd90919063ffffffff16565b600281905550611860816000808573ffffffffffffffffffffffffffffffffffffffff1673ffffffffffffffffffffffffffffffffffffffff168152602001908152602001600020546116bd90919063ffffffff16565b6000808473ffffffffffffffffffffffffffffffffffffffff1673ffffffffffffffffffffffffffffffffffffffff168152602001908152602001600020819055508173ffffffffffffffffffffffffffffffffffffffff16600073ffffffffffffffffffffffffffffffffffffffff167fddf252ad1be2c89b69c2b068fc378daa952ba7f163c4a11628f55a4df523b3ef836040518082815260200191505060405180910390a35050565b600073ffffffffffffffffffffffffffffffffffffffff168273ffffffffffffffffffffffffffffffffffffffff161415611992576040517f08c379a0000000000000000000000000000000000000000000000000000000008152600401808060200182810382526021815260200180611c1f6021913960400191505060405180910390fd5b61199e82600083611ad0565b611a0981604051806060016040528060228152602001611b43602291396000808673ffffffffffffffffffffffffffffffffffffffff1673ffffffffffffffffffffffffffffffffffffffff168152602001908152602001600020546115fd9092919063ffffffff16565b6000808473ffffffffffffffffffffffffffffffffffffffff1673ffffffffffffffffffffffffffffffffffffffff16815260200190815260200160002081905550611a6081600254611ad590919063ffffffff16565b600281905550600073ffffffffffffffffffffffffffffffffffffffff168273ffffffffffffffffffffffffffffffffffffffff167fddf252ad1be2c89b69c2b068fc378daa952ba7f163c4a11628f55a4df523b3ef836040518082815260200191505060405180910390a35050565b505050565b6000611b1783836040518060400160405280601e81526020017f536166654d6174683a207375627472616374696f6e206f766572666c6f7700008152506115fd565b90509291505056fe45524332303a207472616e7366657220746f20746865207a65726f206164647265737345524332303a206275726e20616d6f756e7420657863656564732062616c616e63654f776e61626c653a206e6577206f776e657220697320746865207a65726f206164647265737345524332303a20617070726f766520746f20746865207a65726f206164647265737345524332303a207472616e7366657220616d6f756e7420657863656564732062616c616e636545524332303a207472616e7366657220616d6f756e74206578636565647320616c6c6f77616e636545524332303a206275726e20616d6f756e74206578636565647320616c6c6f77616e636545524332303a206275726e2066726f6d20746865207a65726f206164647265737345524332303a207472616e736665722066726f6d20746865207a65726f206164647265737345524332303a20617070726f76652066726f6d20746865207a65726f206164647265737345524332303a2064656372656173656420616c6c6f77616e63652062656c6f77207a65726fa2646970667358221220f005dc07a98f559715dc8613cc00b11af3e7ab692794648fe04148332ba3c6b164736f6c634300060a0033",
  "immutableReferences": {},
  "source": "pragma solidity ^0.6.10;\n\nimport \"@openzeppelin/contracts/access/Ownable.sol\";\nimport \"@openzeppelin/contracts/math/SafeMath.sol\";\nimport \"@openzeppelin/contracts/token/ERC20/IERC20.sol\";\nimport \"@openzeppelin/contracts/token/ERC20/ERC20Burnable.sol\";\n\nimport \"./interface/IUniswapV2Router.sol\";\n\nimport \"./token/XSUSD.sol\";\n\nimport \"./interface/ILiquidityGauge.sol\";\nimport \"./interface/ICurve.sol\";\nimport \"./interface/IMinter.sol\";\n\ncontract XStable is Ownable {\n\n    using SafeMath for uint256;\n\n    // XSUSD token address\n    XSUSD public xsUsd;\n\n    /** Swap addresses **/\n    ICurve constant internal curveCompound  = ICurve(0xA2B47E3D5c44877cca798226B7B8118F9BFb7A56);\n    ICurve constant internal curveY         = ICurve(0x45F783CCE6B7FF23B2ab2D70e416cdb7D6055f51);\n    ICurve constant internal curveBinance   = ICurve(0x79a8C46DeA5aDa233ABaFFD40F3A0A2B1e5A4F27);\n    ICurve constant internal curveSynthetix = ICurve(0xA5407eAE9Ba41422680e2e00537571bcC53efBfD);\n    ICurve constant internal curvePAX       = ICurve(0x06364f10B501e868329afBc005b3492902d6C763);\n\n    ICurve constant internal swerveUSD      = ICurve(0x329239599afB305DA0A2eC69c58F8a6697F9F88d);\n\n    ICurve[5] internal curveSwaps = [\n      curveCompound,\n      curveY,\n      curveBinance,\n      curveSynthetix,\n      curvePAX\n    ];\n\n    /** Gauge addresses **/\n    ILiquidityGauge constant internal curveCompoundGauge  = ILiquidityGauge(0x7ca5b0a2910B33e9759DC7dDB0413949071D7575);\n    ILiquidityGauge constant internal curveYGauge         = ILiquidityGauge(0xFA712EE4788C042e2B7BB55E6cb8ec569C4530c1);\n    ILiquidityGauge constant internal curveBinanceGauge   = ILiquidityGauge(0x69Fb7c45726cfE2baDeE8317005d3F94bE838840);\n    ILiquidityGauge constant internal curveSynthetixGauge = ILiquidityGauge(0xA90996896660DEcC6E997655E065b23788857849);\n    ILiquidityGauge constant internal curvePAXGauge       = ILiquidityGauge(0x64E3C23bfc40722d3B649844055F1D51c1ac041d);\n\n    ILiquidityGauge constant internal swerveGauge         = ILiquidityGauge(0xb4d0C929cD3A1FbDc6d57E7D3315cF0C4d6B4bFa);\n\n    ILiquidityGauge[5] internal curveGauges = [\n      curveCompoundGauge,\n      curveYGauge,\n      curveBinanceGauge,\n      curveSynthetixGauge,\n      curvePAXGauge\n    ];\n\n    /** Minter addresses */\n    IMinter constant internal curveMinter = IMinter(0xd061D61a4d941c39E5453435B6345Dc261C2fcE0);\n    IMinter constant internal swerveMinter = IMinter(0x2c988c3974AD7E604E276AE0294a7228DEf67974);\n\n    /** Reward token addresses */\n    IERC20 public curveToken  = IERC20(0xD533a949740bb3306d119CC777fa900bA034cd52);\n    IERC20 public swerveToken = IERC20(0xB8BAa0e4287890a5F79863aB62b7F175ceCbD433);\n\n    /** Other token addresses */\n    IERC20 public usdcToken = IERC20(0xA0b86991c6218b36c1d19D4a2e9Eb0cE3606eB48);\n\n    /** Uniswap router address */\n    IUniswapV2Router01 uniswapRouter = IUniswapV2Router01(0x7a250d5630B4cF539739dF2C5dAcb4c659F2488D);\n\n    // Emitted on depositing lp tokens and minting XSUSD\n    event Deposit(\n      address sender,\n      uint256 amount,\n      uint256 mintedXSUsd\n    );\n\n    // Emitted on withdrawing lp tokens and burning XSUSD\n    event Withdraw(\n      address sender,\n      uint256 amount,\n      uint256 burnedXSUsd\n    );\n\n    // Emitted when pool rewards are minted and sold for USDC\n    event MintPoolRewards(\n      address caller,\n      uint256 usdcAmount\n    );\n\n    // Maps swap addresses to gauges\n    mapping (address => ILiquidityGauge) public swapGauges;\n\n    constructor()\n    public {\n        xsUsd = new XSUSD();\n        // Curve\n        swapGauges[address(curveCompound)]  = curveCompoundGauge;\n        swapGauges[address(curveY)]         = curveYGauge;\n        swapGauges[address(curveBinance)]   = curveBinanceGauge;\n        swapGauges[address(curveSynthetix)] = curveSynthetixGauge;\n        swapGauges[address(curvePAX)]       = curvePAXGauge;\n        // Swerve\n        swapGauges[address(swerveUSD)]      = swerveGauge;\n    }\n\n    /**\n    * Deposit LP tokens and receive XSUsd based on current virtual price of LP token\n    * @param _swap Address of Curve/Swerve swap contract\n    * @param _amount Amount of LP tokens to deposit\n    * @return mintableXSUSDInWei Number of XSUSD minted\n    */\n    function deposit(\n        address _swap,\n        uint256 _amount\n    )\n    public\n    returns (uint256 mintableXSUSDInWei) {\n        ILiquidityGauge gauge = swapGauges[_swap];\n        require(address(gauge) != address(0), \"Invalid swap address\");\n\n        // Amount must be > 0\n        require(_amount > 0, \"_amount == 0\");\n\n        // Get the LP token used for this pool gauge\n        IERC20 lpToken = IERC20(gauge.lpToken());\n\n        // Check if user has set allowance for XStable to deposit to gauge on users' behalf\n        require(lpToken.allowance(msg.sender, address(this)) >= _amount, \"allowance < _amount\");\n\n        // Transfer lpToken to XStable\n        require(lpToken.transferFrom(msg.sender, address(this), _amount), \"Error with token transfer\");\n\n        // Retrieve the virtual price for XSUSD after user's deposit\n        uint256 virtualPrice = getVirtualPrice();\n\n        // Amount of XSUsd tokens to mint in wei = amount of lp tokens to deposit * virtual price\n        mintableXSUSDInWei = _amount.mul(virtualPrice).div(10 ** 18);\n\n        // Deposit _amount to gauge\n        gauge.deposit(_amount, address(this));\n\n        // Mint `mintableXSUSDInWei` XSUSD for msg.sender\n        require(xsUsd.mint(msg.sender, mintableXSUSDInWei), \"Error minting XSUSD\");\n\n        // Emit deposit event\n        emit Deposit(\n          msg.sender,\n          _amount,\n          mintableXSUSDInWei\n        );\n    }\n\n    /**\n    * Withdraw XSUsd in LP tokens based on current virtual price of LP token and reserves available in XStable\n    * @param _swap Address of Curve/Swerve swap contract\n    * @param _amount Amount of LP tokens to withdraw\n    */\n    function withdraw(\n        address _swap,\n        uint256 _amount\n    )\n    public\n    returns (uint256 withdrawableLpTokens) {\n        ILiquidityGauge gauge = swapGauges[_swap];\n        require(address(gauge) != address(0), \"Invalid swap address\");\n\n        // Amount must be > 0\n        require(_amount > 0, \"_amount == 0\");\n\n        // Get LP token used for this pool gauge\n        IERC20 lpToken = IERC20(gauge.lpToken());\n\n        // Retrieve the virtual price for this lp token\n        uint256 virtualPrice = ICurve(_swap).get_virtual_price();\n\n        // Check if user has set allowance for XStable to burn xsUsd on users' behalf\n        require(xsUsd.allowance(msg.sender, address(this)) >= _amount, \"allowance < _amount\");\n\n        // Calculate withdrawable lp tokens based on virtual price\n        withdrawableLpTokens = _amount.mul(10**18).div(virtualPrice).div(10**18);\n\n        // Calculate max withdrawable lp tokens based on virtual price\n        uint256 maxWithdrawableLpTokens = IERC20(lpToken).balanceOf(address(this)).mul(10**18).div(virtualPrice).div(10**18);\n\n        // Number of withdrawable lp tokens cannot be more than max withdrawable lp tokens\n        require(\n          withdrawableLpTokens <= maxWithdrawableLpTokens, \n          \"withdrawableLpTokens > maxWithdrawableLpTokens\"\n        );\n\n        // Withdraw LP tokens from gauge\n        gauge.withdraw(withdrawableLpTokens);\n\n        // Transfer lp tokens to user and burn XSUSD\n        require(\n          IERC20(lpToken).transfer(msg.sender, withdrawableLpTokens),\n          \"Error transferring lp tokens\"\n        );\n\n        // Burn xsUsd from user\n        require(\n          xsUsd.burnFrom(msg.sender, _amount), \n          \"Error with xsUsd burn from user\"\n        );\n\n        // Emit withdraw event\n        emit Withdraw(\n          msg.sender,\n          _amount,\n          withdrawableLpTokens\n        );\n    }\n\n    /**\n    * Mints reward tokens from supported Curve clone contracts.\n    * @return Whether reward tokens were claimed by XStable contract\n    */\n    function mintPoolRewards()\n    public \n    returns (bool){\n      // Mint CRV on all gauges with non-zero claimable token rewards\n      require(_mintCurveRewards(), \"Error minting CRV rewards\");\n      // Mint SWRV if gauge has non-zero claimable token rewards\n      require(_mintSwerveRewards(), \"Error minting SWRV rewards\");\n      uint256 usdcAmount = _swapRewardsToUsdc();\n      emit MintPoolRewards(\n        msg.sender,\n        usdcAmount\n      );\n      return true;\n    }\n\n    /**\n    * Mints from all curve pools with a positive balance in the contract\n    * @return Whether mint was successful\n    */\n    function _mintCurveRewards()\n    internal\n    returns (bool) {\n      address[8] memory claimableGauges;\n      for (uint8 i = 0; i < curveGauges.length; i++) {\n        ILiquidityGauge gauge = curveGauges[i];\n\n        // Add to claimable gauges if reward tokens are available\n        if (gauge.claimable_tokens(address(this)) > 0)\n          claimableGauges[i] = address(gauge);\n      }\n\n      // Call mint for all gauges with claimable token rewards\n      curveMinter.mint_many(claimableGauges);\n\n      return true;\n    }\n\n    /**\n    * Mints from swerve pool if it has a positive claimable token balance\n    * @return Whether mint was successful\n    */\n    function _mintSwerveRewards()\n    internal\n    returns (bool) {\n      if (swerveGauge.claimable_tokens(address(this)) > 0)\n        swerveMinter.mint(address(swerveGauge));\n      return true;\n    }\n\n    /**\n    * Swaps reward tokens to USDC via Uniswap\n    * @return _usdcAmount Amount of USDC collected from sales\n    */\n    function _swapRewardsToUsdc()\n    internal\n    returns (uint256 _usdcAmount) {\n      // Swap CRV to USDC\n      _usdcAmount += _swapTokenToUsdc(address(curveToken));\n      // Swap SWRV to USDC\n      _usdcAmount += _swapTokenToUsdc(address(swerveToken));\n    }\n\n    /**\n    * Swaps a token to USDC via uniswap v2 router\n    * @return Whether token was swapped to USDC\n    */\n    function _swapTokenToUsdc(\n      address _token\n    )\n    internal\n    returns (uint256) {\n      address[] memory swapPath = new address[](2);\n      swapPath[0] = address(_token);\n      swapPath[1] = address(usdcToken);\n\n      uint256 preSwapUsdcBalance = usdcToken.balanceOf(address(this));\n      IUniswapV2Router01(uniswapRouter).swapExactTokensForTokens(\n        IERC20(_token).balanceOf(address(this)), \n        0, \n        swapPath, \n        address(this), \n        now.add(1800)\n      );\n      return usdcToken.balanceOf(address(this)) - preSwapUsdcBalance;\n    }\n\n    /**\n    * Claim USDC for user based on time weight % of supply held by user\n    * @return rewardAmount Amount of USDC reward allocated to user\n    */\n    function claimRewards()\n    public \n    returns (uint256 rewardAmount){\n\n    }\n\n    /**\n    * Calculates virtual price based on total deposits across all liquidity gauges\n    * @return virtualPrice Current virtual price for 1 XSUSD\n    */\n    function getVirtualPrice()\n    public\n    returns (uint256 virtualPrice) {\n      uint256 xsUsdSupply = xsUsd.totalSupply();\n      // Value of all deposits in gauges based on virtual prices\n      uint256 totalDepositsUsdValue;\n      for (uint8 i = 0; i < curveSwaps.length; i++) {\n        uint256 lpVirtualPrice = curveSwaps[i].get_virtual_price();\n        ILiquidityGauge gauge = swapGauges[address(curveSwaps[i])];\n        uint256 lpTokenBalance = gauge.balanceOf(address(this));\n        totalDepositsUsdValue = totalDepositsUsdValue.add(lpTokenBalance.mul(lpVirtualPrice));\n      }\n      virtualPrice = totalDepositsUsdValue.mul(10**18).div(xsUsdSupply);\n    }\n\n}\n",
  "sourcePath": "/Users/dev/Projects/xstable/contracts/XStable.sol",
  "compiler": {
    "name": "solc",
    "version": "0.6.10+commit.00c0fcaf.Emscripten.clang"
  },
  "schemaVersion": "3.2.5",
  "updatedAt": "2020-10-02T17:15:42.192Z",
  "devdoc": {
    "methods": {
      "claimRewards()": {
        "returns": {
          "rewardAmount": "Amount of USDC reward allocated to user"
        }
      },
      "deposit(address,uint256)": {
        "params": {
          "_amount": "Amount of LP tokens to deposit",
          "_swap": "Address of Curve/Swerve swap contract"
        },
        "returns": {
          "mintableXSUSDInWei": "Number of XSUSD minted"
        }
      },
      "getVirtualPrice()": {
        "returns": {
          "virtualPrice": "Current virtual price for 1 XSUSD"
        }
      },
      "mintPoolRewards()": {
        "returns": {
          "_0": "Whether reward tokens were claimed by XStable contract"
        }
      },
      "owner()": {
        "details": "Returns the address of the current owner."
      },
      "renounceOwnership()": {
        "details": "Leaves the contract without owner. It will not be possible to call `onlyOwner` functions anymore. Can only be called by the current owner. NOTE: Renouncing ownership will leave the contract without an owner, thereby removing any functionality that is only available to the owner."
      },
      "transferOwnership(address)": {
        "details": "Transfers ownership of the contract to a new account (`newOwner`). Can only be called by the current owner."
      },
      "withdraw(address,uint256)": {
        "params": {
          "_amount": "Amount of LP tokens to withdraw",
          "_swap": "Address of Curve/Swerve swap contract"
        }
      }
    }
  },
  "userdoc": {
    "methods": {
      "claimRewards()": {
        "notice": "Claim USDC for user based on time weight % of supply held by user"
      },
      "curveToken()": {
        "notice": "Reward token addresses "
      },
      "deposit(address,uint256)": {
        "notice": "Deposit LP tokens and receive XSUsd based on current virtual price of LP token"
      },
      "getVirtualPrice()": {
        "notice": "Calculates virtual price based on total deposits across all liquidity gauges"
      },
      "mintPoolRewards()": {
        "notice": "Mints reward tokens from supported Curve clone contracts."
      },
      "usdcToken()": {
        "notice": "Other token addresses "
      },
      "withdraw(address,uint256)": {
        "notice": "Withdraw XSUsd in LP tokens based on current virtual price of LP token and reserves available in XStable"
      }
    }
  }
}